{
  "_format": "hh-sol-artifact-1",
  "contractName": "Web3Fam",
  "sourceName": "contracts/WebFam.sol",
  "abi": [
    {
      "inputs": [],
      "stateMutability": "nonpayable",
      "type": "constructor"
    },
    {
      "anonymous": false,
      "inputs": [
        {
          "indexed": true,
          "internalType": "address",
          "name": "account",
          "type": "address"
        },
        {
          "indexed": true,
          "internalType": "address",
          "name": "operator",
          "type": "address"
        },
        {
          "indexed": false,
          "internalType": "bool",
          "name": "approved",
          "type": "bool"
        }
      ],
      "name": "ApprovalForAll",
      "type": "event"
    },
    {
      "anonymous": false,
      "inputs": [
        {
          "indexed": true,
          "internalType": "address",
          "name": "previousOwner",
          "type": "address"
        },
        {
          "indexed": true,
          "internalType": "address",
          "name": "newOwner",
          "type": "address"
        }
      ],
      "name": "OwnershipTransferred",
      "type": "event"
    },
    {
      "anonymous": false,
      "inputs": [
        {
          "indexed": true,
          "internalType": "address",
          "name": "operator",
          "type": "address"
        },
        {
          "indexed": true,
          "internalType": "address",
          "name": "from",
          "type": "address"
        },
        {
          "indexed": true,
          "internalType": "address",
          "name": "to",
          "type": "address"
        },
        {
          "indexed": false,
          "internalType": "uint256[]",
          "name": "ids",
          "type": "uint256[]"
        },
        {
          "indexed": false,
          "internalType": "uint256[]",
          "name": "values",
          "type": "uint256[]"
        }
      ],
      "name": "TransferBatch",
      "type": "event"
    },
    {
      "anonymous": false,
      "inputs": [
        {
          "indexed": true,
          "internalType": "address",
          "name": "operator",
          "type": "address"
        },
        {
          "indexed": true,
          "internalType": "address",
          "name": "from",
          "type": "address"
        },
        {
          "indexed": true,
          "internalType": "address",
          "name": "to",
          "type": "address"
        },
        {
          "indexed": false,
          "internalType": "uint256",
          "name": "id",
          "type": "uint256"
        },
        {
          "indexed": false,
          "internalType": "uint256",
          "name": "value",
          "type": "uint256"
        }
      ],
      "name": "TransferSingle",
      "type": "event"
    },
    {
      "anonymous": false,
      "inputs": [
        {
          "indexed": false,
          "internalType": "string",
          "name": "value",
          "type": "string"
        },
        {
          "indexed": true,
          "internalType": "uint256",
          "name": "id",
          "type": "uint256"
        }
      ],
      "name": "URI",
      "type": "event"
    },
    {
      "inputs": [],
      "name": "Elements",
      "outputs": [
        {
          "internalType": "string",
          "name": "",
          "type": "string"
        }
      ],
      "stateMutability": "view",
      "type": "function"
    },
    {
      "inputs": [],
      "name": "Starter",
      "outputs": [
        {
          "internalType": "uint256",
          "name": "",
          "type": "uint256"
        }
      ],
      "stateMutability": "view",
      "type": "function"
    },
    {
      "inputs": [
        {
          "internalType": "address",
          "name": "account",
          "type": "address"
        },
        {
          "internalType": "uint256",
          "name": "id",
          "type": "uint256"
        }
      ],
      "name": "balanceOf",
      "outputs": [
        {
          "internalType": "uint256",
          "name": "",
          "type": "uint256"
        }
      ],
      "stateMutability": "view",
      "type": "function"
    },
    {
      "inputs": [
        {
          "internalType": "address[]",
          "name": "accounts",
          "type": "address[]"
        },
        {
          "internalType": "uint256[]",
          "name": "ids",
          "type": "uint256[]"
        }
      ],
      "name": "balanceOfBatch",
      "outputs": [
        {
          "internalType": "uint256[]",
          "name": "",
          "type": "uint256[]"
        }
      ],
      "stateMutability": "view",
      "type": "function"
    },
    {
      "inputs": [
        {
          "internalType": "address",
          "name": "account",
          "type": "address"
        },
        {
          "internalType": "address",
          "name": "operator",
          "type": "address"
        }
      ],
      "name": "isApprovedForAll",
      "outputs": [
        {
          "internalType": "bool",
          "name": "",
          "type": "bool"
        }
      ],
      "stateMutability": "view",
      "type": "function"
    },
    {
      "inputs": [
        {
          "internalType": "uint256",
          "name": "_amount",
          "type": "uint256"
        }
      ],
      "name": "mintStarter",
      "outputs": [],
      "stateMutability": "nonpayable",
      "type": "function"
    },
    {
      "inputs": [],
      "name": "name",
      "outputs": [
        {
          "internalType": "string",
          "name": "",
          "type": "string"
        }
      ],
      "stateMutability": "pure",
      "type": "function"
    },
    {
      "inputs": [],
      "name": "owner",
      "outputs": [
        {
          "internalType": "address",
          "name": "",
          "type": "address"
        }
      ],
      "stateMutability": "view",
      "type": "function"
    },
    {
      "inputs": [],
      "name": "renounceOwnership",
      "outputs": [],
      "stateMutability": "nonpayable",
      "type": "function"
    },
    {
      "inputs": [
        {
          "internalType": "address",
          "name": "from",
          "type": "address"
        },
        {
          "internalType": "address",
          "name": "to",
          "type": "address"
        },
        {
          "internalType": "uint256[]",
          "name": "ids",
          "type": "uint256[]"
        },
        {
          "internalType": "uint256[]",
          "name": "amounts",
          "type": "uint256[]"
        },
        {
          "internalType": "bytes",
          "name": "data",
          "type": "bytes"
        }
      ],
      "name": "safeBatchTransferFrom",
      "outputs": [],
      "stateMutability": "nonpayable",
      "type": "function"
    },
    {
      "inputs": [
        {
          "internalType": "address",
          "name": "from",
          "type": "address"
        },
        {
          "internalType": "address",
          "name": "to",
          "type": "address"
        },
        {
          "internalType": "uint256",
          "name": "id",
          "type": "uint256"
        },
        {
          "internalType": "uint256",
          "name": "amount",
          "type": "uint256"
        },
        {
          "internalType": "bytes",
          "name": "data",
          "type": "bytes"
        }
      ],
      "name": "safeTransferFrom",
      "outputs": [],
      "stateMutability": "nonpayable",
      "type": "function"
    },
    {
      "inputs": [
        {
          "internalType": "address",
          "name": "operator",
          "type": "address"
        },
        {
          "internalType": "bool",
          "name": "approved",
          "type": "bool"
        }
      ],
      "name": "setApprovalForAll",
      "outputs": [],
      "stateMutability": "nonpayable",
      "type": "function"
    },
    {
      "inputs": [
        {
          "internalType": "address",
          "name": "",
          "type": "address"
        },
        {
          "internalType": "uint256",
          "name": "",
          "type": "uint256"
        }
      ],
      "name": "supplyBalance",
      "outputs": [
        {
          "internalType": "uint256",
          "name": "",
          "type": "uint256"
        }
      ],
      "stateMutability": "view",
      "type": "function"
    },
    {
      "inputs": [
        {
          "internalType": "bytes4",
          "name": "interfaceId",
          "type": "bytes4"
        }
      ],
      "name": "supportsInterface",
      "outputs": [
        {
          "internalType": "bool",
          "name": "",
          "type": "bool"
        }
      ],
      "stateMutability": "view",
      "type": "function"
    },
    {
      "inputs": [],
      "name": "symbol",
      "outputs": [
        {
          "internalType": "string",
          "name": "",
          "type": "string"
        }
      ],
      "stateMutability": "pure",
      "type": "function"
    },
    {
      "inputs": [
        {
          "internalType": "address",
          "name": "newOwner",
          "type": "address"
        }
      ],
      "name": "transferOwnership",
      "outputs": [],
      "stateMutability": "nonpayable",
      "type": "function"
    },
    {
      "inputs": [
        {
          "internalType": "uint256",
          "name": "_tokenId",
          "type": "uint256"
        }
      ],
      "name": "uri",
      "outputs": [
        {
          "internalType": "string",
          "name": "",
          "type": "string"
        }
      ],
      "stateMutability": "view",
      "type": "function"
    }
  ],
  "bytecode": "0x60e0604052603660808181529062001cd060a0398051620000299160049160209091019062000159565b503480156200003757600080fd5b50600480546200004790620001ff565b80601f01602080910402602001604051908101604052809291908181526020018280546200007590620001ff565b8015620000c65780601f106200009a57610100808354040283529160200191620000c6565b820191906000526020600020905b815481529060010190602001808311620000a857829003601f168201915b5050505050620000dc81620000ee60201b60201c565b50620000e83362000107565b6200023c565b80516200010390600290602084019062000159565b5050565b600380546001600160a01b038381166001600160a01b0319831681179093556040519116919082907f8be0079c531659141344cd1fd0a4f28419497f9722a3daafe3b4186f6b6457e090600090a35050565b8280546200016790620001ff565b90600052602060002090601f0160209004810192826200018b5760008555620001d6565b82601f10620001a657805160ff1916838001178555620001d6565b82800160010185558215620001d6579182015b82811115620001d6578251825591602001919060010190620001b9565b50620001e4929150620001e8565b5090565b5b80821115620001e45760008155600101620001e9565b600181811c908216806200021457607f821691505b602082108114156200023657634e487b7160e01b600052602260045260246000fd5b50919050565b611a84806200024c6000396000f3fe608060405234801561001057600080fd5b506004361061010a5760003560e01c8063715018a6116100a2578063ab455eb811610071578063ab455eb814610258578063e985e9c51461026b578063eee0d9e2146102a7578063f242432a146102af578063f2fde38b146102c257600080fd5b8063715018a6146102035780638da5cb5b1461020b57806395d89b4114610226578063a22cb4651461024557600080fd5b8063159907de116100de578063159907de1461019b5780632eb2c2d6146101c65780633f8ed4b2146101db5780634e1273f4146101e357600080fd5b8062fdd58e1461010f57806301ffc9a71461013557806306fdde03146101585780630e89341c14610188575b600080fd5b61012261011d3660046113bb565b6102d5565b6040519081526020015b60405180910390f35b6101486101433660046114b6565b61036c565b604051901515815260200161012c565b60408051808201909152600b81526a5765623346616d696c696160a81b60208201525b60405161012c9190611722565b61017b6101963660046114f0565b6103be565b6101226101a93660046113bb565b600560209081526000928352604080842090915290825290205481565b6101d96101d4366004611270565b6103f2565b005b610122600181565b6101f66101f13660046113e5565b610489565b60405161012c91906116ea565b6101d96105b3565b6003546040516001600160a01b03909116815260200161012c565b6040805180820190915260038152622b99a360e91b602082015261017b565b6101d961025336600461137f565b610619565b6101d96102663660046114f0565b610628565b61014861027936600461123d565b6001600160a01b03918216600090815260016020908152604080832093909416825291909152205460ff1690565b61017b610677565b6101d96102bd36600461131a565b610705565b6101d96102d036600461121b565b61078c565b60006001600160a01b0383166103465760405162461bcd60e51b815260206004820152602b60248201527f455243313135353a2062616c616e636520717565727920666f7220746865207a60448201526a65726f206164647265737360a81b60648201526084015b60405180910390fd5b506000908152602081815260408083206001600160a01b03949094168352929052205490565b60006001600160e01b03198216636cdb3d1360e11b148061039d57506001600160e01b031982166303a24d0760e21b145b806103b857506301ffc9a760e01b6001600160e01b03198316145b92915050565b606060046103cb83610857565b6040516020016103dc92919061158c565b6040516020818303038152906040529050919050565b6001600160a01b03851633148061040e575061040e8533610279565b6104755760405162461bcd60e51b815260206004820152603260248201527f455243313135353a207472616e736665722063616c6c6572206973206e6f74206044820152711bdddb995c881b9bdc88185c1c1c9bdd995960721b606482015260840161033d565b610482858585858561095d565b5050505050565b606081518351146104ee5760405162461bcd60e51b815260206004820152602960248201527f455243313135353a206163636f756e747320616e6420696473206c656e677468604482015268040dad2e6dac2e8c6d60bb1b606482015260840161033d565b6000835167ffffffffffffffff81111561050a5761050a61197c565b604051908082528060200260200182016040528015610533578160200160208202803683370190505b50905060005b84518110156105ab5761057e85828151811061055757610557611966565b602002602001015185838151811061057157610571611966565b60200260200101516102d5565b82828151811061059057610590611966565b60209081029190910101526105a48161190b565b9050610539565b509392505050565b6003546001600160a01b0316331461060d5760405162461bcd60e51b815260206004820181905260248201527f4f776e61626c653a2063616c6c6572206973206e6f7420746865206f776e6572604482015260640161033d565b6106176000610b3a565b565b610624338383610b8c565b5050565b6106443360018360405180602001604052806000815250610c6d565b336000908152600560209081526040808320600184529091528120805483929061066f908490611830565b909155505050565b60048054610684906118a3565b80601f01602080910402602001604051908101604052809291908181526020018280546106b0906118a3565b80156106fd5780601f106106d2576101008083540402835291602001916106fd565b820191906000526020600020905b8154815290600101906020018083116106e057829003601f168201915b505050505081565b6001600160a01b03851633148061072157506107218533610279565b61077f5760405162461bcd60e51b815260206004820152602960248201527f455243313135353a2063616c6c6572206973206e6f74206f776e6572206e6f7260448201526808185c1c1c9bdd995960ba1b606482015260840161033d565b6104828585858585610d77565b6003546001600160a01b031633146107e65760405162461bcd60e51b815260206004820181905260248201527f4f776e61626c653a2063616c6c6572206973206e6f7420746865206f776e6572604482015260640161033d565b6001600160a01b03811661084b5760405162461bcd60e51b815260206004820152602660248201527f4f776e61626c653a206e6577206f776e657220697320746865207a65726f206160448201526564647265737360d01b606482015260840161033d565b61085481610b3a565b50565b60608161087b5750506040805180820190915260018152600360fc1b602082015290565b8160005b81156108a5578061088f8161190b565b915061089e9050600a83611848565b915061087f565b60008167ffffffffffffffff8111156108c0576108c061197c565b6040519080825280601f01601f1916602001820160405280156108ea576020820181803683370190505b5090505b8415610955576108ff60018361185c565b915061090c600a86611926565b610917906030611830565b60f81b81838151811061092c5761092c611966565b60200101906001600160f81b031916908160001a90535061094e600a86611848565b94506108ee565b949350505050565b81518351146109bf5760405162461bcd60e51b815260206004820152602860248201527f455243313135353a2069647320616e6420616d6f756e7473206c656e677468206044820152670dad2e6dac2e8c6d60c31b606482015260840161033d565b6001600160a01b0384166109e55760405162461bcd60e51b815260040161033d9061177d565b3360005b8451811015610acc576000858281518110610a0657610a06611966565b602002602001015190506000858381518110610a2457610a24611966565b602090810291909101810151600084815280835260408082206001600160a01b038e168352909352919091205490915081811015610a745760405162461bcd60e51b815260040161033d906117c2565b6000838152602081815260408083206001600160a01b038e8116855292528083208585039055908b16825281208054849290610ab1908490611830565b9250508190555050505080610ac59061190b565b90506109e9565b50846001600160a01b0316866001600160a01b0316826001600160a01b03167f4a39dc06d4c0dbc64b70af90fd698a233a518aa5d07e595d983b8c0526c8f7fb8787604051610b1c9291906116fd565b60405180910390a4610b32818787878787610e94565b505050505050565b600380546001600160a01b038381166001600160a01b0319831681179093556040519116919082907f8be0079c531659141344cd1fd0a4f28419497f9722a3daafe3b4186f6b6457e090600090a35050565b816001600160a01b0316836001600160a01b03161415610c005760405162461bcd60e51b815260206004820152602960248201527f455243313135353a2073657474696e6720617070726f76616c20737461747573604482015268103337b91039b2b63360b91b606482015260840161033d565b6001600160a01b03838116600081815260016020908152604080832094871680845294825291829020805460ff191686151590811790915591519182527f17307eab39ab6107e8899845ad3d59bd9653f200f220920489ca2b5937696c31910160405180910390a3505050565b6001600160a01b038416610ccd5760405162461bcd60e51b815260206004820152602160248201527f455243313135353a206d696e7420746f20746865207a65726f206164647265736044820152607360f81b606482015260840161033d565b33610ce781600087610cde88610fff565b61048288610fff565b6000848152602081815260408083206001600160a01b038916845290915281208054859290610d17908490611830565b909155505060408051858152602081018590526001600160a01b0380881692600092918516917fc3d58168c5ae7397731d063d5bbf3d657854427343f4c083240f7aacaa2d0f62910160405180910390a46104828160008787878761104a565b6001600160a01b038416610d9d5760405162461bcd60e51b815260040161033d9061177d565b33610dad818787610cde88610fff565b6000848152602081815260408083206001600160a01b038a16845290915290205483811015610dee5760405162461bcd60e51b815260040161033d906117c2565b6000858152602081815260408083206001600160a01b038b8116855292528083208785039055908816825281208054869290610e2b908490611830565b909155505060408051868152602081018690526001600160a01b03808916928a821692918616917fc3d58168c5ae7397731d063d5bbf3d657854427343f4c083240f7aacaa2d0f62910160405180910390a4610e8b82888888888861104a565b50505050505050565b6001600160a01b0384163b15610b325760405163bc197c8160e01b81526001600160a01b0385169063bc197c8190610ed89089908990889088908890600401611647565b602060405180830381600087803b158015610ef257600080fd5b505af1925050508015610f22575060408051601f3d908101601f19168201909252610f1f918101906114d3565b60015b610fcf57610f2e611992565b806308c379a01415610f685750610f436119ae565b80610f4e5750610f6a565b8060405162461bcd60e51b815260040161033d9190611722565b505b60405162461bcd60e51b815260206004820152603460248201527f455243313135353a207472616e7366657220746f206e6f6e20455243313135356044820152732932b1b2b4bb32b91034b6b83632b6b2b73a32b960611b606482015260840161033d565b6001600160e01b0319811663bc197c8160e01b14610e8b5760405162461bcd60e51b815260040161033d90611735565b6040805160018082528183019092526060916000919060208083019080368337019050509050828160008151811061103957611039611966565b602090810291909101015292915050565b6001600160a01b0384163b15610b325760405163f23a6e6160e01b81526001600160a01b0385169063f23a6e619061108e90899089908890889088906004016116a5565b602060405180830381600087803b1580156110a857600080fd5b505af19250505080156110d8575060408051601f3d908101601f191682019092526110d5918101906114d3565b60015b6110e457610f2e611992565b6001600160e01b0319811663f23a6e6160e01b14610e8b5760405162461bcd60e51b815260040161033d90611735565b80356001600160a01b038116811461112b57600080fd5b919050565b600082601f83011261114157600080fd5b8135602061114e8261180c565b60405161115b82826118de565b8381528281019150858301600585901b8701840188101561117b57600080fd5b60005b8581101561119a5781358452928401929084019060010161117e565b5090979650505050505050565b600082601f8301126111b857600080fd5b813567ffffffffffffffff8111156111d2576111d261197c565b6040516111e9601f8301601f1916602001826118de565b8181528460208386010111156111fe57600080fd5b816020850160208301376000918101602001919091529392505050565b60006020828403121561122d57600080fd5b61123682611114565b9392505050565b6000806040838503121561125057600080fd5b61125983611114565b915061126760208401611114565b90509250929050565b600080600080600060a0868803121561128857600080fd5b61129186611114565b945061129f60208701611114565b9350604086013567ffffffffffffffff808211156112bc57600080fd5b6112c889838a01611130565b945060608801359150808211156112de57600080fd5b6112ea89838a01611130565b9350608088013591508082111561130057600080fd5b5061130d888289016111a7565b9150509295509295909350565b600080600080600060a0868803121561133257600080fd5b61133b86611114565b945061134960208701611114565b93506040860135925060608601359150608086013567ffffffffffffffff81111561137357600080fd5b61130d888289016111a7565b6000806040838503121561139257600080fd5b61139b83611114565b9150602083013580151581146113b057600080fd5b809150509250929050565b600080604083850312156113ce57600080fd5b6113d783611114565b946020939093013593505050565b600080604083850312156113f857600080fd5b823567ffffffffffffffff8082111561141057600080fd5b818501915085601f83011261142457600080fd5b813560206114318261180c565b60405161143e82826118de565b8381528281019150858301600585901b870184018b101561145e57600080fd5b600096505b848710156114885761147481611114565b835260019690960195918301918301611463565b509650508601359250508082111561149f57600080fd5b506114ac85828601611130565b9150509250929050565b6000602082840312156114c857600080fd5b813561123681611a38565b6000602082840312156114e557600080fd5b815161123681611a38565b60006020828403121561150257600080fd5b5035919050565b600081518084526020808501945080840160005b838110156115395781518752958201959082019060010161151d565b509495945050505050565b6000815180845261155c816020860160208601611873565b601f01601f19169290920160200192915050565b60008151611582818560208601611873565b9290920192915050565b600080845481600182811c9150808316806115a857607f831692505b60208084108214156115c857634e487b7160e01b86526022600452602486fd5b8180156115dc57600181146115ed5761161a565b60ff1986168952848901965061161a565b60008b81526020902060005b868110156116125781548b8201529085019083016115f9565b505084890196505b50505050505061163e61162d8286611570565b64173539b7b760d91b815260050190565b95945050505050565b6001600160a01b0386811682528516602082015260a06040820181905260009061167390830186611509565b82810360608401526116858186611509565b905082810360808401526116998185611544565b98975050505050505050565b6001600160a01b03868116825285166020820152604081018490526060810183905260a0608082018190526000906116df90830184611544565b979650505050505050565b6020815260006112366020830184611509565b6040815260006117106040830185611509565b828103602084015261163e8185611509565b6020815260006112366020830184611544565b60208082526028908201527f455243313135353a204552433131353552656365697665722072656a656374656040820152676420746f6b656e7360c01b606082015260800190565b60208082526025908201527f455243313135353a207472616e7366657220746f20746865207a65726f206164604082015264647265737360d81b606082015260800190565b6020808252602a908201527f455243313135353a20696e73756666696369656e742062616c616e636520666f60408201526939103a3930b739b332b960b11b606082015260800190565b600067ffffffffffffffff8211156118265761182661197c565b5060051b60200190565b600082198211156118435761184361193a565b500190565b60008261185757611857611950565b500490565b60008282101561186e5761186e61193a565b500390565b60005b8381101561188e578181015183820152602001611876565b8381111561189d576000848401525b50505050565b600181811c908216806118b757607f821691505b602082108114156118d857634e487b7160e01b600052602260045260246000fd5b50919050565b601f8201601f1916810167ffffffffffffffff811182821017156119045761190461197c565b6040525050565b600060001982141561191f5761191f61193a565b5060010190565b60008261193557611935611950565b500690565b634e487b7160e01b600052601160045260246000fd5b634e487b7160e01b600052601260045260246000fd5b634e487b7160e01b600052603260045260246000fd5b634e487b7160e01b600052604160045260246000fd5b600060033d11156119ab5760046000803e5060005160e01c5b90565b600060443d10156119bc5790565b6040516003193d81016004833e81513d67ffffffffffffffff81602484011181841117156119ec57505050505090565b8285019150815181811115611a045750505050505090565b843d8701016020828501011115611a1e5750505050505090565b611a2d602082860101876118de565b509095945050505050565b6001600160e01b03198116811461085457600080fdfea2646970667358221220821661aaf9b6ba149e33951ad94f7a3272e98364ac4326f8f5a76ff5dbf8dac864736f6c63430008070033697066733a2f2f516d534767717a77394c6e4263774e6f4a676446765a4838476a513836334e54716d63776168486d31506b69565a2f",
  "linkReferences": {},
  "deployedLinkReferences": {}
}