{
  "_format": "hh-sol-artifact-1",
  "contractName": "Onboard",
  "sourceName": "contracts/Onboard.sol",
  "abi": [
    {
      "inputs": [],
      "stateMutability": "nonpayable",
      "type": "constructor"
    },
    {
      "anonymous": false,
      "inputs": [
        {
          "indexed": true,
          "internalType": "address",
          "name": "account",
          "type": "address"
        },
        {
          "indexed": true,
          "internalType": "address",
          "name": "operator",
          "type": "address"
        },
        {
          "indexed": false,
          "internalType": "bool",
          "name": "approved",
          "type": "bool"
        }
      ],
      "name": "ApprovalForAll",
      "type": "event"
    },
    {
      "anonymous": false,
      "inputs": [
        {
          "indexed": true,
          "internalType": "address",
          "name": "previousOwner",
          "type": "address"
        },
        {
          "indexed": true,
          "internalType": "address",
          "name": "newOwner",
          "type": "address"
        }
      ],
      "name": "OwnershipTransferred",
      "type": "event"
    },
    {
      "anonymous": false,
      "inputs": [
        {
          "indexed": true,
          "internalType": "address",
          "name": "operator",
          "type": "address"
        },
        {
          "indexed": true,
          "internalType": "address",
          "name": "from",
          "type": "address"
        },
        {
          "indexed": true,
          "internalType": "address",
          "name": "to",
          "type": "address"
        },
        {
          "indexed": false,
          "internalType": "uint256[]",
          "name": "ids",
          "type": "uint256[]"
        },
        {
          "indexed": false,
          "internalType": "uint256[]",
          "name": "values",
          "type": "uint256[]"
        }
      ],
      "name": "TransferBatch",
      "type": "event"
    },
    {
      "anonymous": false,
      "inputs": [
        {
          "indexed": true,
          "internalType": "address",
          "name": "operator",
          "type": "address"
        },
        {
          "indexed": true,
          "internalType": "address",
          "name": "from",
          "type": "address"
        },
        {
          "indexed": true,
          "internalType": "address",
          "name": "to",
          "type": "address"
        },
        {
          "indexed": false,
          "internalType": "uint256",
          "name": "id",
          "type": "uint256"
        },
        {
          "indexed": false,
          "internalType": "uint256",
          "name": "value",
          "type": "uint256"
        }
      ],
      "name": "TransferSingle",
      "type": "event"
    },
    {
      "anonymous": false,
      "inputs": [
        {
          "indexed": false,
          "internalType": "string",
          "name": "value",
          "type": "string"
        },
        {
          "indexed": true,
          "internalType": "uint256",
          "name": "id",
          "type": "uint256"
        }
      ],
      "name": "URI",
      "type": "event"
    },
    {
      "inputs": [],
      "name": "Bronze",
      "outputs": [
        {
          "internalType": "uint256",
          "name": "",
          "type": "uint256"
        }
      ],
      "stateMutability": "view",
      "type": "function"
    },
    {
      "inputs": [],
      "name": "Elements",
      "outputs": [
        {
          "internalType": "string",
          "name": "",
          "type": "string"
        }
      ],
      "stateMutability": "view",
      "type": "function"
    },
    {
      "inputs": [],
      "name": "Gold",
      "outputs": [
        {
          "internalType": "uint256",
          "name": "",
          "type": "uint256"
        }
      ],
      "stateMutability": "view",
      "type": "function"
    },
    {
      "inputs": [],
      "name": "Silver",
      "outputs": [
        {
          "internalType": "uint256",
          "name": "",
          "type": "uint256"
        }
      ],
      "stateMutability": "view",
      "type": "function"
    },
    {
      "inputs": [
        {
          "internalType": "address",
          "name": "account",
          "type": "address"
        },
        {
          "internalType": "uint256",
          "name": "id",
          "type": "uint256"
        }
      ],
      "name": "balanceOf",
      "outputs": [
        {
          "internalType": "uint256",
          "name": "",
          "type": "uint256"
        }
      ],
      "stateMutability": "view",
      "type": "function"
    },
    {
      "inputs": [
        {
          "internalType": "address[]",
          "name": "accounts",
          "type": "address[]"
        },
        {
          "internalType": "uint256[]",
          "name": "ids",
          "type": "uint256[]"
        }
      ],
      "name": "balanceOfBatch",
      "outputs": [
        {
          "internalType": "uint256[]",
          "name": "",
          "type": "uint256[]"
        }
      ],
      "stateMutability": "view",
      "type": "function"
    },
    {
      "inputs": [
        {
          "internalType": "address",
          "name": "account",
          "type": "address"
        },
        {
          "internalType": "address",
          "name": "operator",
          "type": "address"
        }
      ],
      "name": "isApprovedForAll",
      "outputs": [
        {
          "internalType": "bool",
          "name": "",
          "type": "bool"
        }
      ],
      "stateMutability": "view",
      "type": "function"
    },
    {
      "inputs": [
        {
          "internalType": "uint256",
          "name": "_amount",
          "type": "uint256"
        }
      ],
      "name": "mintToken",
      "outputs": [],
      "stateMutability": "nonpayable",
      "type": "function"
    },
    {
      "inputs": [],
      "name": "name",
      "outputs": [
        {
          "internalType": "string",
          "name": "",
          "type": "string"
        }
      ],
      "stateMutability": "pure",
      "type": "function"
    },
    {
      "inputs": [],
      "name": "owner",
      "outputs": [
        {
          "internalType": "address",
          "name": "",
          "type": "address"
        }
      ],
      "stateMutability": "view",
      "type": "function"
    },
    {
      "inputs": [],
      "name": "renounceOwnership",
      "outputs": [],
      "stateMutability": "nonpayable",
      "type": "function"
    },
    {
      "inputs": [
        {
          "internalType": "address",
          "name": "from",
          "type": "address"
        },
        {
          "internalType": "address",
          "name": "to",
          "type": "address"
        },
        {
          "internalType": "uint256[]",
          "name": "ids",
          "type": "uint256[]"
        },
        {
          "internalType": "uint256[]",
          "name": "amounts",
          "type": "uint256[]"
        },
        {
          "internalType": "bytes",
          "name": "data",
          "type": "bytes"
        }
      ],
      "name": "safeBatchTransferFrom",
      "outputs": [],
      "stateMutability": "nonpayable",
      "type": "function"
    },
    {
      "inputs": [
        {
          "internalType": "address",
          "name": "from",
          "type": "address"
        },
        {
          "internalType": "address",
          "name": "to",
          "type": "address"
        },
        {
          "internalType": "uint256",
          "name": "id",
          "type": "uint256"
        },
        {
          "internalType": "uint256",
          "name": "amount",
          "type": "uint256"
        },
        {
          "internalType": "bytes",
          "name": "data",
          "type": "bytes"
        }
      ],
      "name": "safeTransferFrom",
      "outputs": [],
      "stateMutability": "nonpayable",
      "type": "function"
    },
    {
      "inputs": [
        {
          "internalType": "address",
          "name": "operator",
          "type": "address"
        },
        {
          "internalType": "bool",
          "name": "approved",
          "type": "bool"
        }
      ],
      "name": "setApprovalForAll",
      "outputs": [],
      "stateMutability": "nonpayable",
      "type": "function"
    },
    {
      "inputs": [
        {
          "internalType": "address",
          "name": "",
          "type": "address"
        },
        {
          "internalType": "uint256",
          "name": "",
          "type": "uint256"
        }
      ],
      "name": "supplyBalance",
      "outputs": [
        {
          "internalType": "uint256",
          "name": "",
          "type": "uint256"
        }
      ],
      "stateMutability": "view",
      "type": "function"
    },
    {
      "inputs": [
        {
          "internalType": "bytes4",
          "name": "interfaceId",
          "type": "bytes4"
        }
      ],
      "name": "supportsInterface",
      "outputs": [
        {
          "internalType": "bool",
          "name": "",
          "type": "bool"
        }
      ],
      "stateMutability": "view",
      "type": "function"
    },
    {
      "inputs": [],
      "name": "symbol",
      "outputs": [
        {
          "internalType": "string",
          "name": "",
          "type": "string"
        }
      ],
      "stateMutability": "pure",
      "type": "function"
    },
    {
      "inputs": [
        {
          "internalType": "address",
          "name": "newOwner",
          "type": "address"
        }
      ],
      "name": "transferOwnership",
      "outputs": [],
      "stateMutability": "nonpayable",
      "type": "function"
    },
    {
      "inputs": [
        {
          "internalType": "uint256",
          "name": "_tokenId",
          "type": "uint256"
        }
      ],
      "name": "uri",
      "outputs": [
        {
          "internalType": "string",
          "name": "",
          "type": "string"
        }
      ],
      "stateMutability": "view",
      "type": "function"
    }
  ],
  "bytecode": "0x60e0604052603660808181529062001e5a60a0398051620000299160049160209091019062000159565b503480156200003757600080fd5b50600480546200004790620001ff565b80601f01602080910402602001604051908101604052809291908181526020018280546200007590620001ff565b8015620000c65780601f106200009a57610100808354040283529160200191620000c6565b820191906000526020600020905b815481529060010190602001808311620000a857829003601f168201915b5050505050620000dc81620000ee60201b60201c565b50620000e83362000107565b6200023c565b80516200010390600290602084019062000159565b5050565b600380546001600160a01b038381166001600160a01b0319831681179093556040519116919082907f8be0079c531659141344cd1fd0a4f28419497f9722a3daafe3b4186f6b6457e090600090a35050565b8280546200016790620001ff565b90600052602060002090601f0160209004810192826200018b5760008555620001d6565b82601f10620001a657805160ff1916838001178555620001d6565b82800160010185558215620001d6579182015b82811115620001d6578251825591602001919060010190620001b9565b50620001e4929150620001e8565b5090565b5b80821115620001e45760008155600101620001e9565b600181811c908216806200021457607f821691505b602082108114156200023657634e487b7160e01b600052602260045260246000fd5b50919050565b611c0e806200024c6000396000f3fe608060405234801561001057600080fd5b50600436106101205760003560e01c80638da5cb5b116100ad578063e985e9c511610071578063e985e9c51461028b578063eee0d9e2146102c7578063f242432a146102cf578063f2fde38b146102e2578063fe275280146102f557600080fd5b80638da5cb5b1461022357806395d89b411461023e578063a22cb4651461025d578063c634d03214610270578063c8449b651461028357600080fd5b806310ca7d1c116100f457806310ca7d1c146101b3578063159907de146101bb5780632eb2c2d6146101e65780634e1273f4146101fb578063715018a61461021b57600080fd5b8062fdd58e1461012557806301ffc9a71461014b57806306fdde031461016e5780630e89341c146101a0575b600080fd5b610138610133366004611549565b6102fd565b6040519081526020015b60405180910390f35b61015e610159366004611644565b610394565b6040519015158152602001610142565b60408051808201909152600d81526c0c521a5d994813db989bd85c99609a1b60208201525b60405161014291906118b0565b6101936101ae36600461167e565b6103e6565b610138600181565b6101386101c9366004611549565b600560209081526000928352604080842090915290825290205481565b6101f96101f43660046113fe565b61041a565b005b61020e610209366004611573565b6104b1565b6040516101429190611878565b6101f96105db565b6003546040516001600160a01b039091168152602001610142565b60408051808201909152600381526248564f60e81b6020820152610193565b6101f961026b36600461150d565b610641565b6101f961027e36600461167e565b610650565b610138600381565b61015e6102993660046113cb565b6001600160a01b03918216600090815260016020908152604080832093909416825291909152205460ff1690565b610193610794565b6101f96102dd3660046114a8565b610822565b6101f96102f03660046113a9565b6108a9565b610138600281565b60006001600160a01b03831661036e5760405162461bcd60e51b815260206004820152602b60248201527f455243313135353a2062616c616e636520717565727920666f7220746865207a60448201526a65726f206164647265737360a81b60648201526084015b60405180910390fd5b506000908152602081815260408083206001600160a01b03949094168352929052205490565b60006001600160e01b03198216636cdb3d1360e11b14806103c557506001600160e01b031982166303a24d0760e21b145b806103e057506301ffc9a760e01b6001600160e01b03198316145b92915050565b606060046103f383610974565b60405160200161040492919061171a565b6040516020818303038152906040529050919050565b6001600160a01b03851633148061043657506104368533610299565b61049d5760405162461bcd60e51b815260206004820152603260248201527f455243313135353a207472616e736665722063616c6c6572206973206e6f74206044820152711bdddb995c881b9bdc88185c1c1c9bdd995960721b6064820152608401610365565b6104aa8585858585610a7a565b5050505050565b606081518351146105165760405162461bcd60e51b815260206004820152602960248201527f455243313135353a206163636f756e747320616e6420696473206c656e677468604482015268040dad2e6dac2e8c6d60bb1b6064820152608401610365565b6000835167ffffffffffffffff81111561053257610532611b06565b60405190808252806020026020018201604052801561055b578160200160208202803683370190505b50905060005b84518110156105d3576105a685828151811061057f5761057f611af0565b602002602001015185838151811061059957610599611af0565b60200260200101516102fd565b8282815181106105b8576105b8611af0565b60209081029190910101526105cc81611a95565b9050610561565b509392505050565b6003546001600160a01b031633146106355760405162461bcd60e51b815260206004820181905260248201527f4f776e61626c653a2063616c6c6572206973206e6f7420746865206f776e65726044820152606401610365565b61063f6000610c65565b565b61064c338383610cb7565b5050565b33600090815260056020908152604080832060038452909152808220546002835281832054600184529190922054600a8214801561068e5750600183105b156106e5576106af3360038660405180602001604052806000815250610d98565b33600090815260056020908152604080832060038452909152812080548692906106da9084906119be565b9091555061078e9050565b80600a1480156106f55750600a82105b15610741576107163360028660405180602001604052806000815250610d98565b33600090815260056020908152604080832060028452909152812080548692906106da9084906119be565b61075d3360018660405180602001604052806000815250610d98565b33600090815260056020908152604080832060018452909152812080548692906107889084906119be565b90915550505b50505050565b600480546107a190611a2d565b80601f01602080910402602001604051908101604052809291908181526020018280546107cd90611a2d565b801561081a5780601f106107ef5761010080835404028352916020019161081a565b820191906000526020600020905b8154815290600101906020018083116107fd57829003601f168201915b505050505081565b6001600160a01b03851633148061083e575061083e8533610299565b61089c5760405162461bcd60e51b815260206004820152602960248201527f455243313135353a2063616c6c6572206973206e6f74206f776e6572206e6f7260448201526808185c1c1c9bdd995960ba1b6064820152608401610365565b6104aa8585858585610ea8565b6003546001600160a01b031633146109035760405162461bcd60e51b815260206004820181905260248201527f4f776e61626c653a2063616c6c6572206973206e6f7420746865206f776e65726044820152606401610365565b6001600160a01b0381166109685760405162461bcd60e51b815260206004820152602660248201527f4f776e61626c653a206e6577206f776e657220697320746865207a65726f206160448201526564647265737360d01b6064820152608401610365565b61097181610c65565b50565b6060816109985750506040805180820190915260018152600360fc1b602082015290565b8160005b81156109c257806109ac81611a95565b91506109bb9050600a836119d6565b915061099c565b60008167ffffffffffffffff8111156109dd576109dd611b06565b6040519080825280601f01601f191660200182016040528015610a07576020820181803683370190505b5090505b8415610a7257610a1c6001836119ea565b9150610a29600a86611ab0565b610a349060306119be565b60f81b818381518110610a4957610a49611af0565b60200101906001600160f81b031916908160001a905350610a6b600a866119d6565b9450610a0b565b949350505050565b8151835114610adc5760405162461bcd60e51b815260206004820152602860248201527f455243313135353a2069647320616e6420616d6f756e7473206c656e677468206044820152670dad2e6dac2e8c6d60c31b6064820152608401610365565b6001600160a01b038416610b025760405162461bcd60e51b81526004016103659061190b565b33610b11818787878787610fc5565b60005b8451811015610bf7576000858281518110610b3157610b31611af0565b602002602001015190506000858381518110610b4f57610b4f611af0565b602090810291909101810151600084815280835260408082206001600160a01b038e168352909352919091205490915081811015610b9f5760405162461bcd60e51b815260040161036590611950565b6000838152602081815260408083206001600160a01b038e8116855292528083208585039055908b16825281208054849290610bdc9084906119be565b9250508190555050505080610bf090611a95565b9050610b14565b50846001600160a01b0316866001600160a01b0316826001600160a01b03167f4a39dc06d4c0dbc64b70af90fd698a233a518aa5d07e595d983b8c0526c8f7fb8787604051610c4792919061188b565b60405180910390a4610c5d818787878787611022565b505050505050565b600380546001600160a01b038381166001600160a01b0319831681179093556040519116919082907f8be0079c531659141344cd1fd0a4f28419497f9722a3daafe3b4186f6b6457e090600090a35050565b816001600160a01b0316836001600160a01b03161415610d2b5760405162461bcd60e51b815260206004820152602960248201527f455243313135353a2073657474696e6720617070726f76616c20737461747573604482015268103337b91039b2b63360b91b6064820152608401610365565b6001600160a01b03838116600081815260016020908152604080832094871680845294825291829020805460ff191686151590811790915591519182527f17307eab39ab6107e8899845ad3d59bd9653f200f220920489ca2b5937696c31910160405180910390a3505050565b6001600160a01b038416610df85760405162461bcd60e51b815260206004820152602160248201527f455243313135353a206d696e7420746f20746865207a65726f206164647265736044820152607360f81b6064820152608401610365565b33610e1881600087610e098861118d565b610e128861118d565b87610fc5565b6000848152602081815260408083206001600160a01b038916845290915281208054859290610e489084906119be565b909155505060408051858152602081018590526001600160a01b0380881692600092918516917fc3d58168c5ae7397731d063d5bbf3d657854427343f4c083240f7aacaa2d0f62910160405180910390a46104aa816000878787876111d8565b6001600160a01b038416610ece5760405162461bcd60e51b81526004016103659061190b565b33610ede818787610e098861118d565b6000848152602081815260408083206001600160a01b038a16845290915290205483811015610f1f5760405162461bcd60e51b815260040161036590611950565b6000858152602081815260408083206001600160a01b038b8116855292528083208785039055908816825281208054869290610f5c9084906119be565b909155505060408051868152602081018690526001600160a01b03808916928a821692918616917fc3d58168c5ae7397731d063d5bbf3d657854427343f4c083240f7aacaa2d0f62910160405180910390a4610fbc8288888888886111d8565b50505050505050565b6001600160a01b038516610fd857610c5d565b6001600160a01b03841615610c5d5760405162461bcd60e51b815260206004820152601060248201526f21b0b7103737ba103a3930b739b332b960811b6044820152606401610365565b6001600160a01b0384163b15610c5d5760405163bc197c8160e01b81526001600160a01b0385169063bc197c819061106690899089908890889088906004016117d5565b602060405180830381600087803b15801561108057600080fd5b505af19250505080156110b0575060408051601f3d908101601f191682019092526110ad91810190611661565b60015b61115d576110bc611b1c565b806308c379a014156110f657506110d1611b38565b806110dc57506110f8565b8060405162461bcd60e51b815260040161036591906118b0565b505b60405162461bcd60e51b815260206004820152603460248201527f455243313135353a207472616e7366657220746f206e6f6e20455243313135356044820152732932b1b2b4bb32b91034b6b83632b6b2b73a32b960611b6064820152608401610365565b6001600160e01b0319811663bc197c8160e01b14610fbc5760405162461bcd60e51b8152600401610365906118c3565b604080516001808252818301909252606091600091906020808301908036833701905050905082816000815181106111c7576111c7611af0565b602090810291909101015292915050565b6001600160a01b0384163b15610c5d5760405163f23a6e6160e01b81526001600160a01b0385169063f23a6e619061121c9089908990889088908890600401611833565b602060405180830381600087803b15801561123657600080fd5b505af1925050508015611266575060408051601f3d908101601f1916820190925261126391810190611661565b60015b611272576110bc611b1c565b6001600160e01b0319811663f23a6e6160e01b14610fbc5760405162461bcd60e51b8152600401610365906118c3565b80356001600160a01b03811681146112b957600080fd5b919050565b600082601f8301126112cf57600080fd5b813560206112dc8261199a565b6040516112e98282611a68565b8381528281019150858301600585901b8701840188101561130957600080fd5b60005b858110156113285781358452928401929084019060010161130c565b5090979650505050505050565b600082601f83011261134657600080fd5b813567ffffffffffffffff81111561136057611360611b06565b604051611377601f8301601f191660200182611a68565b81815284602083860101111561138c57600080fd5b816020850160208301376000918101602001919091529392505050565b6000602082840312156113bb57600080fd5b6113c4826112a2565b9392505050565b600080604083850312156113de57600080fd5b6113e7836112a2565b91506113f5602084016112a2565b90509250929050565b600080600080600060a0868803121561141657600080fd5b61141f866112a2565b945061142d602087016112a2565b9350604086013567ffffffffffffffff8082111561144a57600080fd5b61145689838a016112be565b9450606088013591508082111561146c57600080fd5b61147889838a016112be565b9350608088013591508082111561148e57600080fd5b5061149b88828901611335565b9150509295509295909350565b600080600080600060a086880312156114c057600080fd5b6114c9866112a2565b94506114d7602087016112a2565b93506040860135925060608601359150608086013567ffffffffffffffff81111561150157600080fd5b61149b88828901611335565b6000806040838503121561152057600080fd5b611529836112a2565b91506020830135801515811461153e57600080fd5b809150509250929050565b6000806040838503121561155c57600080fd5b611565836112a2565b946020939093013593505050565b6000806040838503121561158657600080fd5b823567ffffffffffffffff8082111561159e57600080fd5b818501915085601f8301126115b257600080fd5b813560206115bf8261199a565b6040516115cc8282611a68565b8381528281019150858301600585901b870184018b10156115ec57600080fd5b600096505b8487101561161657611602816112a2565b8352600196909601959183019183016115f1565b509650508601359250508082111561162d57600080fd5b5061163a858286016112be565b9150509250929050565b60006020828403121561165657600080fd5b81356113c481611bc2565b60006020828403121561167357600080fd5b81516113c481611bc2565b60006020828403121561169057600080fd5b5035919050565b600081518084526020808501945080840160005b838110156116c7578151875295820195908201906001016116ab565b509495945050505050565b600081518084526116ea816020860160208601611a01565b601f01601f19169290920160200192915050565b60008151611710818560208601611a01565b9290920192915050565b600080845481600182811c91508083168061173657607f831692505b602080841082141561175657634e487b7160e01b86526022600452602486fd5b81801561176a576001811461177b576117a8565b60ff198616895284890196506117a8565b60008b81526020902060005b868110156117a05781548b820152908501908301611787565b505084890196505b5050505050506117cc6117bb82866116fe565b64173539b7b760d91b815260050190565b95945050505050565b6001600160a01b0386811682528516602082015260a06040820181905260009061180190830186611697565b82810360608401526118138186611697565b9050828103608084015261182781856116d2565b98975050505050505050565b6001600160a01b03868116825285166020820152604081018490526060810183905260a06080820181905260009061186d908301846116d2565b979650505050505050565b6020815260006113c46020830184611697565b60408152600061189e6040830185611697565b82810360208401526117cc8185611697565b6020815260006113c460208301846116d2565b60208082526028908201527f455243313135353a204552433131353552656365697665722072656a656374656040820152676420746f6b656e7360c01b606082015260800190565b60208082526025908201527f455243313135353a207472616e7366657220746f20746865207a65726f206164604082015264647265737360d81b606082015260800190565b6020808252602a908201527f455243313135353a20696e73756666696369656e742062616c616e636520666f60408201526939103a3930b739b332b960b11b606082015260800190565b600067ffffffffffffffff8211156119b4576119b4611b06565b5060051b60200190565b600082198211156119d1576119d1611ac4565b500190565b6000826119e5576119e5611ada565b500490565b6000828210156119fc576119fc611ac4565b500390565b60005b83811015611a1c578181015183820152602001611a04565b8381111561078e5750506000910152565b600181811c90821680611a4157607f821691505b60208210811415611a6257634e487b7160e01b600052602260045260246000fd5b50919050565b601f8201601f1916810167ffffffffffffffff81118282101715611a8e57611a8e611b06565b6040525050565b6000600019821415611aa957611aa9611ac4565b5060010190565b600082611abf57611abf611ada565b500690565b634e487b7160e01b600052601160045260246000fd5b634e487b7160e01b600052601260045260246000fd5b634e487b7160e01b600052603260045260246000fd5b634e487b7160e01b600052604160045260246000fd5b600060033d1115611b355760046000803e5060005160e01c5b90565b600060443d1015611b465790565b6040516003193d81016004833e81513d67ffffffffffffffff8160248401118184111715611b7657505050505090565b8285019150815181811115611b8e5750505050505090565b843d8701016020828501011115611ba85750505050505090565b611bb760208286010187611a68565b509095945050505050565b6001600160e01b03198116811461097157600080fdfea26469706673582212205ce9f2555a43d6570f6ea867c4d6dd20ca49e085196a1117bd6947d23026d31064736f6c63430008070033697066733a2f2f516d597645354d554870545845394277747236424343486e375231683253516f596273673550316f6d46594550362f",
  "linkReferences": {},
  "deployedLinkReferences": {}
}